:020000040800F2
:1000000000200020391100086D1000086F10000852
:1000100000000000000000000000000000000000E0
:100020000000000000000000000000007110000847
:1000300000000000000000007310000875100008A8
:100040008911000889110008891100088911000828
:100050008911000889110008891100087D10000825
:100060008911000889110008891100088911000808
:1000700089110008891100088911000889110008F8
:10008000891100088911000800000000891100088A
:1000900089110008891100088911000889110008D8
:1000A00089110008891100088911000889110008C8
:1000B00089110008000000008911000800000000FC
:0400C0005FF808F1EC
:1000C400044B054A1A6000225A609A60DA60034AB7
:1000D4005A617047000401400000940FFFFF6B0059
:1000E400174B30B59C46027904688379E143624436
:1000F400002B1AD063461D680D401D605D682940C1
:1001040059601168214311609968026891439960AC
:10011400D9689143D960417910290AD0084B9C468B
:1001240061440B681A430A6002E0136819401160C5
:1001340030BD996811439960D9680A43DA60F7E7DA
:1001440000040140C02200231201036082808371F5
:100154007047C046024A1369034313617047C0469F
:1001640000040140034B5B691840431E9841C0B230
:100174007047C04600040140014B58617047C046B7
:10018400000401400300054A00201168526913422B
:1001940003D00B405A1E9341D8B27047000401406B
:1001A400014B58617047C04600040140902310B5CC
:1001B400DB05984217D0224B98421FD0214B98421E
:1001C40027D0214B984203D0204B98422CD010BD0D
:1001D40080200121400300F051FD802000214003D4
:1001E40000F04CFDF3E780200121800200F046FD81
:1001F40080200021800200F041FDE8E780200121F9
:10020400C00200F03BFD80200021C00200F036FD5A
:10021400DDE780200121000300F030FD8020002173
:10022400000300F02BFDD2E780200121C00300F081
:1002340025FD80200021C00300F020FDC7E7C04653
:100244000004004800080048000C0048001400485E
:10025400F0B5DE46454657464E460124E0B50B68E8
:10026400A34602349C4600220023A04683B003E048
:1002740001330232102B38D05C4665469C40254041
:10028400AC42F5D146469640F7430D7901976E1E70
:10029400012E14D886683E4086608668B2464E7940
:1002A4009640B14656464F463E4386608688A643EE
:1002B40086808E7984889E403443A4B2848095409D
:1002C4000468019E013326400660046825430560E6
:1002D40045469540C468AC43C460CC79C568944035
:1002E4002C43C4600232102BC6D103B0F0BCBB4611
:1002F400B246A946A046F0BD024B036080239B0092
:1003040043607047FFFF0000802382B05B020193CB
:10031400019B0B430193019BC361C161019BC361B9
:10032400C3690193C369019302B07047038A1940FA
:100334000800431E9841C0B27047C046008A80B28C
:100344007047C046838A19400800431E9841C0B2D2
:100354007047C046808A80B27047C046816170474A
:1003640001857047002A01D0816170470185FCE74F
:1003740081827047072310B50F240B409B009C40DB
:100384009A40C90889004018016AA1430162016AC0
:100394000A43026210BDC0460C4B012110B59842BD
:1003A40009D08020C00300F081FC80200021C0031C
:1003B40000F07CFC10BD8020800300F077FC8020DE
:1003C4000021800300F072FCF4E7C04600540040B2
:1003D40030B5012403684D68A34303600268124BDF
:1003E4001A408B681B022B43134303600F4A0B68AC
:1003F4001340036103680A69234303600023836095
:10040400C3608B6913438360802382681B02134398
:1004140083600368CA68134303604368044A134053
:100424004A691343436030BDFFE0CF00FFFFFFF094
:10043400FF7FFF0780220023120203604360836072
:10044400C3600361426183617047C046012203684F
:10045400002902D013430360704793430360FBE712
:10046400002905D0802302689B0113430360704771
:100474000368024A13400360F9E7C046FFDFFFFF49
:100484000368002A02D00B43036070478B43036068
:10049400FBE7C046002904D00368054A1340036003
:1004A4007047802302689B0213430360F8E7C04649
:1004B400FFFFFDFF002905D080230268DB02134300
:1004C400036070470368024A13400360F9E7C046BB
:1004D400FFFFFBFF002905D08023C2681B021343E2
:1004E400C3607047C368024A1340C360F9E7C0465B
:1004F400FF7FFFFF10B5C368054C12022340E024C0
:10050400E4002240FE240C4022431A43C26010BD82
:1005140001F8FFFF002905D0802302681B03134361
:10052400036070470368024A13400360F9E7C0465A
:10053400FFFFF7FF002905D0802302685B02134305
:10054400036070470368024A13400360F9E7C0463A
:10055400FFFFFEFF436889059B0A9B02890D19432F
:1005640041607047002905D0802342681B01134372
:10057400436070474368024A13404360F9E7C0464A
:10058400FFF7FFFF002905D0802342689B04134333
:10059400436070474368024A13404360F9E7C0462A
:1005A400FFFFFFFD002905D0802342685B0413434D
:1005B400436070474368024A13404360F9E7C0460A
:1005C400FFFFFFFE4368034A0904134019434160D7
:1005D4007047C046FFFF00FF002904D14368054A65
:1005E40013404360704780234268DB001343436039
:1005F400F8E7C046FFFBFFFF002905D080234268CF
:100604009B011343436070474368024A13404360AD
:10061400F9E7C046FFDFFFFF002905D080234268C9
:10062400DB011343436070474368024A134043604D
:10063400F9E7C046FFBFFFFF002905D080234268C9
:100644005B011343436070474368024A13404360AD
:10065400F9E7C046FFEFFFFF002904D04368054ACD
:10066400134043607047802342681B021343436076
:10067400F8E7C046FF7FFFFFFE238069000C1840A7
:100684007047C0468069C003C00F80027047C046EF
:1006940030B54468054D12042C40039D89052B4355
:1006A4001A43890D0A432243426030BD009800FC7E
:1006B400002905D080230268DB03134303607047DD
:1006C4000368024A13400360F9E7C046FFFFBFFF17
:1006D400002905D0802342691B02134343617047FC
:1006E4004369024A13404361F9E7C046FF7FFFFFB5
:1006F400002905D0802342691B06134343617047D8
:1007040043695B005B084361F9E7C046002905D0F3
:10071400802342695B011343436170474369024A82
:1007240013404361F9E7C046FFEFFFFF4369090542
:100734001B0B1B03090D1943416170474369044AAC
:1007440009041340034A1140194341617047C046EC
:10075400FFFF00F00000FF0F002905D0802302688E
:100764001B041343036070470368024A1340036089
:10077400F9E7C046FFFF7FFF002905D08023026808
:10078400DB041343036070470368024A13400360A9
:10079400F9E7C046FFFFFFFB006AC0B27047C046DE
:1007A400002382B001930190019BC9180191019B20
:1007B400186802B07047C04681627047406AC0B290
:1007C4007047C0460368002A02D01943016070478D
:1007D4008B430360FBE7C046836919400800431E4E
:1007E4009841C0B27047C046C1617047FC239B0169
:1007F40019420AD0802302681340826900200A4209
:1008040002D05A1E9341D8B27047C0230B4203D082
:100814000268803B1340F0E703680B40EDE7C046F5
:10082400C16170470121114B11481A680A431A60CB
:100834005A6802405A601A680E4802401A601A68E0
:100844000D4802401A605A680C4802400F205A6052
:10085400DA6A8243DA621A6B094802401A635A6BF5
:100864008A435A6300229A607047C04600100240CF
:100874000CB8FFF8FFFFF6FEFFFFFBFFFFFFC0FF12
:10088400ACFEFFFF0022024B1A7018707047C0467E
:100894000210024000238022A02082B00B49019361
:1008A4009202C0000B68134209D0019B01330193EB
:1008B400019B064B18688003C00F02B07047019B70
:1008C40001330193019B8342ECD1F2E70010024013
:1008D400F821034AC00013688B4318431060704723
:1008E40000100240054A01211368002802D00B437E
:1008F400136070478B431360FBE7C046001002404F
:10090400F821034AC000536B8B431843506370476C
:1009140000100240054A0121536B002802D00B430A
:10092400536370478B435363FBE7C0460010024098
:10093400054A0421536B002802D08B43536370474C
:100944000B435363FBE7C046001002400121064BF2
:100954001A6A8A431A621A6A03318A431A621A6A41
:1009640002431A627047C046001002401821044B2B
:100974001A6A8A431A621A6A02431A627047C046A4
:1009840000100240054A0121536A002802D00B439B
:10099400536270478B435362FBE7C046001002402A
:1009A400054A10B55368054C2340536053680B4304
:1009B4000343536010BDC04600100240FFFFC2FF56
:1009C400064A002805D0802311685B040B4313609A
:1009D4007047136802490B401360F9E700100240A6
:1009E400FFFFFFFE0F21034AD36A8B430343D36205
:1009F4007047C04600100240064A002805D08023F4
:100A040011681B030B4313607047136802490B40C2
:100A14001360F9E700100240FFFFF7FF014B187065
:100A24007047C046071002400321034A53688B43B2
:100A3400034353607047C046001002400C20024B31
:100A44005B6818407047C04600100240F021034A1A
:100A540053688B43034353607047C0460010024001
:100A6400034A044953680B40034353607047C0462C
:100A740000100240FFF8FFFF094B0A495A680A4078
:100A84005A6059680204120C0A435A601A6B0649E8
:100A9400000C0A401A631A6B104318637047C0466F
:100AA40000100240FFBFFFFFFFFEFFFF4021044B89
:100AB4001A6B8A431A631A6B02431A637047C0465F
:100AC400001002401021044B1A6B8A431A631A6BFC
:100AD40002431A637047C046001002400321044BCE
:100AE4001A6B8A431A631A6B02431A637047C0462F
:100AF400001002400C23344A70B5516804000B40C6
:100B0400082B42D0314802002F4920604B68304DF9
:100B14001B061B0FEB5CDA4062604B685B055B0FE6
:100B2400EB5CDA40A2600B6BDB051BD549689308CC
:100B3400490428D511252449E3600B6B5B06DB17B8
:100B4400AB43244DAC46634423610B6B0100DB06CD
:100B540000D41E49032361611B490D6B2B4203D151
:100B6400A26170BD1C4BE5E70A6B1A40012A1CD038
:100B74000A6B1A40022A22D00A6B1340032BF0D1CD
:100B8400124BA361EDE75308D4E70F215068536873
:100B9400800C0840851CDB0309D46A01521B9301B5
:100BA4009B1ADB005B191802ADE7A061D9E7D36A91
:100BB40006481940013100F0C5F86843A3E78023D3
:100BC4001B02A361CDE7C0460010024000127A0068
:100BD4008C11000812800000809FD500024A136A1D
:100BE400034313627047C04600100240064A0028BF
:100BF40005D08023116A1B020B4313627047136AEA
:100C040002490B401362F9E700100240FF7FFFFF27
:100C1400064A002805D08023116A5B020B43136245
:100C24007047136A02490B401362F9E7001002404F
:100C3400FFFFFEFF044A5369002902D003435361B6
:100C4400704783435361FBE700100240044A9369F1
:100C5400002902D003439361704783439361FBE708
:100C640000100240044AD369002902D00343D3612F
:100C740070478343D361FBE700100240044A936A40
:100C8400002902D003439362704783439362FBE7D6
:100C940000100240044AD368002902D00343D36001
:100CA40070478343D360FBE700100240044A136992
:100CB400002902D003431361704783431361FBE7A8
:100CC40000100240044A1378002902D00343137031
:100CD400704783431370FBE709100240430907D1AF
:100CE4000A4B1A681F230340DA4001201040704762
:100CF400012B04D0022B05D0044B5A6BF2E7034BB3
:100D04001A6AEFE7014B5A6AECE7C046001002404A
:100D14008023034A5B04516A0B4353627047C04605
:100D240000100240034B9B6803405A1E9341D8B203
:100D34007047C04600100240014B18707047C0460F
:100D44000A100240002243088B4274D303098B42E9
:100D54005FD3030A8B4244D3030B8B4228D3030C87
:100D64008B420DD3FF22090212BA030C8B4202D329
:100D74001212090265D0030B8B4219D300E0090A51
:100D8400C30B8B4201D3CB03C01A5241830B8B425A
:100D940001D38B03C01A5241430B8B4201D34B0343
:100DA400C01A5241030B8B4201D30B03C01A5241A8
:100DB400C30A8B4201D3CB02C01A5241830A8B422D
:100DC40001D38B02C01A5241430A8B4201D34B0216
:100DD400C01A5241030A8B4201D30B02C01A52417A
:100DE400CDD2C3098B4201D3CB01C01A524183092E
:100DF4008B4201D38B01C01A524143098B4201D368
:100E04004B01C01A524103098B4201D30B01C01A92
:100E14005241C3088B4201D3CB00C01A524183080C
:100E24008B4201D38B00C01A524143088B4201D339
:100E34004B00C01A5241411A00D201465241104699
:100E44007047FFE701B5002000F006F802BDC04678
:100E54000029F7D076E770477047C04670B50D4B50
:100E64000D4D5E1BB610AB4205D0002408CD0134F5
:100E74009847A642FAD800F08FF9084B084D5E1B3C
:100E8400B610AB4205D0002408CD01349847A642E1
:100E9400FAD870BD0000000000000000000000004F
:100EA4000000000010B50C4C2000FFF723FEFA21CF
:100EB40060688900FFF746FFC021084A0138506086
:100EC40007480906036A1B021B0A0B43036200233B
:100ED40093600733136010BD0800002010E000E0A9
:100EE40000ED00E082B00190019A034B1A601A6889
:100EF400002AFCD102B070472800002010B5FFF78B
:100F0400D1FF00F0D7F88022174B120299691142E1
:100F1400FCD12022DA61154A5A60122299691142E1
:100F2400FCD01022996911421BD10F3A9A623F32C8
:100F340099691142FCD080225968D2010A435A604F
:100F4400202299691142FCD0DA61FA240022084B6C
:100F5400A4001A70002000F071F82000FFF7C2FF0F
:100F6400F8E70020DA6110BD00540040D2200100EF
:100F740024000020034B1A68002A02D01A68013AA0
:100F84001A6070472800002013B501200F24244B59
:100F940024491A6802431A605A680A405A601A6857
:100FA40021490A401A601A6820490A401A605A689E
:100FB4001F490A405A60DA6AA243DA621A6B1D4C6E
:100FC40022401A635A6B82435A6300229A60009249
:100FD4000192194A103010605A685A605A685A606F
:100FE4005A680A405A60A022596892030A435A6018
:100FF4008022196852040A431A60802292041968F4
:101004001142FCD003215A688A435A60022259686B
:101014000A430C215A605A680A40082AFBD113BDBE
:10102400001002400CB8FFF8FFFFF6FEFFFFFBFFC5
:10103400FFFFC0FFACFEFFFF00200240034B800017
:10104400C2582023918A4B409382704704000020A9
:10105400802110B5034B8000C0588901FFF766F961
:1010640010BDC046000000207047FEE7704770477F
:1010740010B5FFF77FFF10BD802010B58001FFF78A
:1010840081F801280ED10020FFF7E2FF002809D0E3
:10109400074A1378012B06D10023802080011370A6
:1010A400FFF77EF810BD13780133DBB2F5E7C046D5
:1010B40024000020802030B501218BB08003FFF78D
:1010C400D1FD8020164C0121C002FFF7B3FD2000A2
:1010D40001220821FFF74EF9012220000921FFF720
:1010E40049F9C0239B0001930E4B200001A90293F0
:1010F400FFF7AEF800230C4D03AC0693049305935D
:101104000A4B210028000393FFF762F9012128000C
:10111400FFF79CF96822064B1C609A800BB030BD27
:10112400000400480203010100540040231D900004
:101134002C0000200D488546002103E00C4B5B5831
:10114400435004310B480C4B42189A42F6D30B4AD5
:1011540002E0002313600432094B9A42F9D3FFF7EB
:1011640013FFFFF77BFEFFF7C9FEFEE70020002018
:10117400B41100080000002008000020080000202E
:1011840034000020FEE70000000000000102030418
:101194000102030406070809F8B5C046F8BC08BCF8
:1011A4009E467047F8B5C046F8BC08BC9E467047DA
:0811B40000080048000000489B
:0400000508001139A5
:00000001FF
