:020000040800F2
:1000000000200020D52E0008A1260008A326000805
:1000100000000000000000000000000000000000E0
:10002000000000000000000000000000A5260008FD
:100030000000000000000000A7260008A926000814
:10004000252F0008252F0008252F0008252F000840
:10005000252F0008252F0008252F0008B1260008AD
:10006000252F0008252F0008252F0008252F000820
:10007000252F0008252F0008252F0008252F000810
:10008000252F0008252F000800000000252F00085C
:10009000252F0008252F0008252F0008252F0008F0
:1000A000252F0008252F0008252F0008252F0008E0
:1000B000252F000800000000252F00080000000088
:0400C0005FF808F1EC
:1000C400044B054A1A6000225A609A60DA60034AB7
:1000D4005A617047000401400000940FFFFF6B0059
:1000E400174B30B59C46027904688379E143624436
:1000F400002B1AD063461D680D401D605D682940C1
:1001040059601168214311609968026891439960AC
:10011400D9689143D960417910290AD0084B9C468B
:1001240061440B681A430A6002E0136819401160C5
:1001340030BD996811439960D9680A43DA60F7E7DA
:1001440000040140C02200231201036082808371F5
:100154007047C046024A1369034313617047C0469F
:1001640000040140034B5B691840431E9841C0B230
:100174007047C04600040140014B58617047C046B7
:10018400000401400300054A00201168526913422B
:1001940003D00B405A1E9341D8B27047000401406B
:1001A400014B58617047C04600040140902310B5CC
:1001B400DB05984217D0224B98421FD0214B98421E
:1001C40027D0214B984203D0204B98422CD010BD0D
:1001D40080200121400300F051FD802000214003D4
:1001E40000F04CFDF3E780200121800200F046FD81
:1001F40080200021800200F041FDE8E780200121F9
:10020400C00200F03BFD80200021C00200F036FD5A
:10021400DDE780200121000300F030FD8020002173
:10022400000300F02BFDD2E780200121C00300F081
:1002340025FD80200021C00300F020FDC7E7C04653
:100244000004004800080048000C0048001400485E
:10025400F0B5DE46454657464E460124E0B50B68E8
:10026400A34602349C4600220023A04683B003E048
:1002740001330232102B38D05C4665469C40254041
:10028400AC42F5D146469640F7430D7901976E1E70
:10029400012E14D886683E4086608668B2464E7940
:1002A4009640B14656464F463E4386608688A643EE
:1002B40086808E7984889E403443A4B2848095409D
:1002C4000468019E013326400660046825430560E6
:1002D40045469540C468AC43C460CC79C568944035
:1002E4002C43C4600232102BC6D103B0F0BCBB4611
:1002F400B246A946A046F0BD024B036080239B0092
:1003040043607047FFFF0000802382B05B020193CB
:10031400019B0B430193019BC361C161019BC361B9
:10032400C3690193C369019302B07047038A1940FA
:100334000800431E9841C0B27047C046008A80B28C
:100344007047C046838A19400800431E9841C0B2D2
:100354007047C046808A80B27047C046816170474A
:1003640001857047002A01D0816170470185FCE74F
:1003740081827047072310B50F240B409B009C40DB
:100384009A40C90889004018016AA1430162016AC0
:100394000A43026210BDC0460C4B012110B59842BD
:1003A40009D08020C00300F081FC80200021C0031C
:1003B40000F07CFC10BD8020800300F077FC8020DE
:1003C4000021800300F072FCF4E7C04600540040B2
:1003D40030B5012403684D68A34303600268124BDF
:1003E4001A408B681B022B43134303600F4A0B68AC
:1003F4001340036103680A69234303600023836095
:10040400C3608B6913438360802382681B02134398
:1004140083600368CA68134303604368044A134053
:100424004A691343436030BDFFE0CF00FFFFFFF094
:10043400FF7FFF0780220023120203604360836072
:10044400C3600361426183617047C046012203684F
:10045400002902D013430360704793430360FBE712
:10046400002905D0802302689B0113430360704771
:100474000368024A13400360F9E7C046FFDFFFFF49
:100484000368002A02D00B43036070478B43036068
:10049400FBE7C046002904D00368054A1340036003
:1004A4007047802302689B0213430360F8E7C04649
:1004B400FFFFFDFF002905D080230268DB02134300
:1004C400036070470368024A13400360F9E7C046BB
:1004D400FFFFFBFF002905D08023C2681B021343E2
:1004E400C3607047C368024A1340C360F9E7C0465B
:1004F400FF7FFFFF10B5C368054C12022340E024C0
:10050400E4002240FE240C4022431A43C26010BD82
:1005140001F8FFFF002905D0802302681B03134361
:10052400036070470368024A13400360F9E7C0465A
:10053400FFFFF7FF002905D0802302685B02134305
:10054400036070470368024A13400360F9E7C0463A
:10055400FFFFFEFF436889059B0A9B02890D19432F
:1005640041607047002905D0802342681B01134372
:10057400436070474368024A13404360F9E7C0464A
:10058400FFF7FFFF002905D0802342689B04134333
:10059400436070474368024A13404360F9E7C0462A
:1005A400FFFFFFFD002905D0802342685B0413434D
:1005B400436070474368024A13404360F9E7C0460A
:1005C400FFFFFFFE4368034A0904134019434160D7
:1005D4007047C046FFFF00FF002904D14368054A65
:1005E40013404360704780234268DB001343436039
:1005F400F8E7C046FFFBFFFF002905D080234268CF
:100604009B011343436070474368024A13404360AD
:10061400F9E7C046FFDFFFFF002905D080234268C9
:10062400DB011343436070474368024A134043604D
:10063400F9E7C046FFBFFFFF002905D080234268C9
:100644005B011343436070474368024A13404360AD
:10065400F9E7C046FFEFFFFF002904D04368054ACD
:10066400134043607047802342681B021343436076
:10067400F8E7C046FF7FFFFFFE238069000C1840A7
:100684007047C0468069C003C00F80027047C046EF
:1006940030B54468054D12042C40039D89052B4355
:1006A4001A43890D0A432243426030BD009800FC7E
:1006B400002905D080230268DB03134303607047DD
:1006C4000368024A13400360F9E7C046FFFFBFFF17
:1006D400002905D0802342691B02134343617047FC
:1006E4004369024A13404361F9E7C046FF7FFFFFB5
:1006F400002905D0802342691B06134343617047D8
:1007040043695B005B084361F9E7C046002905D0F3
:10071400802342695B011343436170474369024A82
:1007240013404361F9E7C046FFEFFFFF4369090542
:100734001B0B1B03090D1943416170474369044AAC
:1007440009041340034A1140194341617047C046EC
:10075400FFFF00F00000FF0F002905D0802302688E
:100764001B041343036070470368024A1340036089
:10077400F9E7C046FFFF7FFF002905D08023026808
:10078400DB041343036070470368024A13400360A9
:10079400F9E7C046FFFFFFFB006AC0B27047C046DE
:1007A400002382B001930190019BC9180191019B20
:1007B400186802B07047C04681627047406AC0B290
:1007C4007047C0460368002A02D01943016070478D
:1007D4008B430360FBE7C046836919400800431E4E
:1007E4009841C0B27047C046C1617047FC239B0169
:1007F40019420AD0802302681340826900200A4209
:1008040002D05A1E9341D8B27047C0230B4203D082
:100814000268803B1340F0E703680B40EDE7C046F5
:10082400C16170470121114B11481A680A431A60CB
:100834005A6802405A601A680E4802401A601A68E0
:100844000D4802401A605A680C4802400F205A6052
:10085400DA6A8243DA621A6B094802401A635A6BF5
:100864008A435A6300229A607047C04600100240CF
:100874000CB8FFF8FFFFF6FEFFFFFBFFFFFFC0FF12
:10088400ACFEFFFF0022024B1A7018707047C0467E
:100894000210024000238022A02082B00B49019361
:1008A4009202C0000B68134209D0019B01330193EB
:1008B400019B064B18688003C00F02B07047019B70
:1008C40001330193019B8342ECD1F2E70010024013
:1008D400F821034AC00013688B4318431060704723
:1008E40000100240054A01211368002802D00B437E
:1008F400136070478B431360FBE7C046001002404F
:10090400F821034AC000536B8B431843506370476C
:1009140000100240054A0121536B002802D00B430A
:10092400536370478B435363FBE7C0460010024098
:10093400054A0421536B002802D08B43536370474C
:100944000B435363FBE7C046001002400121064BF2
:100954001A6A8A431A621A6A03318A431A621A6A41
:1009640002431A627047C046001002401821044B2B
:100974001A6A8A431A621A6A02431A627047C046A4
:1009840000100240054A0121536A002802D00B439B
:10099400536270478B435362FBE7C046001002402A
:1009A400054A10B55368054C2340536053680B4304
:1009B4000343536010BDC04600100240FFFFC2FF56
:1009C400064A002805D0802311685B040B4313609A
:1009D4007047136802490B401360F9E700100240A6
:1009E400FFFFFFFE0F21034AD36A8B430343D36205
:1009F4007047C04600100240064A002805D08023F4
:100A040011681B030B4313607047136802490B40C2
:100A14001360F9E700100240FFFFF7FF014B187065
:100A24007047C046071002400321034A53688B43B2
:100A3400034353607047C046001002400C20024B31
:100A44005B6818407047C04600100240F021034A1A
:100A540053688B43034353607047C0460010024001
:100A6400034A044953680B40034353607047C0462C
:100A740000100240FFF8FFFF094B0A495A680A4078
:100A84005A6059680204120C0A435A601A6B0649E8
:100A9400000C0A401A631A6B104318637047C0466F
:100AA40000100240FFBFFFFFFFFEFFFF4021044B89
:100AB4001A6B8A431A631A6B02431A637047C0465F
:100AC400001002401021044B1A6B8A431A631A6BFC
:100AD40002431A637047C046001002400321044BCE
:100AE4001A6B8A431A631A6B02431A637047C0462F
:100AF400001002400C23344A70B5516804000B40C6
:100B0400082B42D0314802002F4920604B68304DF9
:100B14001B061B0FEB5CDA4062604B685B055B0FE6
:100B2400EB5CDA40A2600B6BDB051BD549689308CC
:100B3400490428D511252449E3600B6B5B06DB17B8
:100B4400AB43244DAC46634423610B6B0100DB06CD
:100B540000D41E49032361611B490D6B2B4203D151
:100B6400A26170BD1C4BE5E70A6B1A40012A1CD038
:100B74000A6B1A40022A22D00A6B1340032BF0D1CD
:100B8400124BA361EDE75308D4E70F215068536873
:100B9400800C0840851CDB0309D46A01521B9301B5
:100BA4009B1ADB005B191802ADE7A061D9E7D36A91
:100BB40006481940013100F06DFA6843A3E7802329
:100BC4001B02A361CDE7C0460010024000127A0068
:100BD400342F000812800000809FD500024A136A57
:100BE400034313627047C04600100240064A0028BF
:100BF40005D08023116A1B020B4313627047136AEA
:100C040002490B401362F9E700100240FF7FFFFF27
:100C1400064A002805D08023116A5B020B43136245
:100C24007047136A02490B401362F9E7001002404F
:100C3400FFFFFEFF044A5369002902D003435361B6
:100C4400704783435361FBE700100240044A9369F1
:100C5400002902D003439361704783439361FBE708
:100C640000100240044AD369002902D00343D3612F
:100C740070478343D361FBE700100240044A936A40
:100C8400002902D003439362704783439362FBE7D6
:100C940000100240044AD368002902D00343D36001
:100CA40070478343D360FBE700100240044A136992
:100CB400002902D003431361704783431361FBE7A8
:100CC40000100240044A1378002902D00343137031
:100CD400704783431370FBE709100240430907D1AF
:100CE4000A4B1A681F230340DA4001201040704762
:100CF400012B04D0022B05D0044B5A6BF2E7034BB3
:100D04001A6AEFE7014B5A6AECE7C046001002404A
:100D14008023034A5B04516A0B4353627047C04605
:100D240000100240034B9B6803405A1E9341D8B203
:100D34007047C04600100240014B18707047C0460F
:100D44000A1002400E4B10B5984203D00D4B984246
:100D54000BD010BD802001214001FFF79BFF8020B4
:100D640000214001FFF796FFF3E780200121C00135
:100D7400FFF79CFF80200021C001FFF797FFE8E701
:100D840000300140003800400023E022038043800B
:100D9400D200C380038143818381C381073382806E
:100DA40003827047C1220388920110B51A40CC898E
:100DB4000B882343CC8823430C8923434C89234346
:100DC4008C892343134303808388094A13408A8808
:100DD4001343042283800B8A0382038893434A8843
:100DE40013430380838B034A1340838310BDC0469F
:100DF400FFF0FFFFFFF7FFFF0023022203604360C1
:100E0400826083817047C046F0B5C64600B5274A64
:100E1400838B06001340838302230384858B8B68B2
:100E24000C0088B0ADB2022B39D0898801A84B1EC2
:100E340099414B1C9846FFF75DFE8023E788019893
:100E44009B009F4229D04346590100F023F98300B7
:100E54001818A168400000F01DF905300A2180B27D
:100E640000F018F901230340C01A400880B2811E23
:100E74000222FD2916D91743378423886288134335
:100E84001D43A3881D43A3891D4380231B012B43BA
:100E9400B38308B080BCB846F0BD000AD7E702228D
:100EA400CF88E8E71A020243E5E7C04640F0FFFFB7
:100EB40040220388002902D01343038070479343E0
:100EC4000380FBE710228388002902D01343838028
:100ED400704793438380FBE7002905D08023828BEE
:100EE400DB00134383837047838B024A134083835D
:100EF400F9E7C046FFFBFFFF8388024A13400B4318
:100F040083807047FFF0FFFF8388034A1340838088
:100F140083880B4383807047FFEFFFFF8023DB014F
:100F2400994204D00388044A13400380704703881D
:100F340019430180FAE7C046FFBFFFFF064B994201
:100F440005D0802302885B00134303807047038825
:100F5400024A13400380F9E7FFFE0000FFFEFFFF93
:100F640004228388002902D013438380704793436B
:100F74008380FBE708228388002902D013438380FF
:100F8400704793438380FBE7017370478181704707
:100F9400007BC0B27047C046808980B27047C046AB
:100FA4000388034A1340038003880B43038070477C
:100FB400FFF7FFFF002905D0802302889B0113431C
:100FC400038070470388024A13400380F9E7C04650
:100FD400FFDFFFFF802302885B0113430380704718
:100FE400012902D0008B80B27047808A80B2FBE76F
:100FF400008A80B27047C0468388002A02D00B431F
:10100400838070478B438380FBE7C0468388034A11
:101014001340838083880B4383807047FF9FFFFFC7
:10102400012309098B409BB2002A03D08288134311
:101034008380704782889A438280FAE7C0230089BC
:101044005B0118407047C046C0230089DB0018408C
:101054007047C046038919400800431E9841C0B236
:101064007047C046C94389B201817047012330B536
:101074000F228488058918000A4090400200A4B217
:1010840000202A4205D009098B4023405A1E93416F
:10109400D8B230BD002243088B4274D303098B427B
:1010A4005FD3030A8B4244D3030B8B4228D3030C34
:1010B4008B420DD3FF22090212BA030C8B4202D3D6
:1010C4001212090265D0030B8B4219D300E0090AFE
:1010D400C30B8B4201D3CB03C01A5241830B8B4207
:1010E40001D38B03C01A5241430B8B4201D34B03F0
:1010F400C01A5241030B8B4201D30B03C01A524155
:10110400C30A8B4201D3CB02C01A5241830A8B42D9
:1011140001D38B02C01A5241430A8B4201D34B02C2
:10112400C01A5241030A8B4201D30B02C01A524126
:10113400CDD2C3098B4201D3CB01C01A52418309DA
:101144008B4201D38B01C01A524143098B4201D314
:101154004B01C01A524103098B4201D30B01C01A3F
:101164005241C3088B4201D3CB00C01A52418308B9
:101174008B4201D38B00C01A524143088B4201D3E6
:101184004B00C01A5241411A00D201465241104646
:101194007047FFE701B5002000F0F0F802BDC0463B
:1011A4000029F7D076E7704703460B437FD400222B
:1011B40043088B4274D303098B425FD3030A8B42E7
:1011C40044D3030B8B4228D3030C8B420DD3FF2251
:1011D400090212BA030C8B4202D31212090265D01F
:1011E400030B8B4219D300E0090AC30B8B4201D3D2
:1011F400CB03C01A5241830B8B4201D38B03C01A19
:101204005241430B8B4201D34B03C01A5241030B8F
:101214008B4201D30B03C01A5241C30A8B4201D340
:10122400CB02C01A5241830A8B4201D38B02C01AEB
:101234005241430A8B4201D34B02C01A5241030A62
:101244008B4201D30B02C01A5241CDD2C3098B4247
:1012540001D3CB01C01A524183098B4201D38B01C4
:10126400C01A524143098B4201D34B01C01A524167
:1012740003098B4201D30B01C01A5241C3088B42AC
:1012840001D3CB00C01A524183088B4201D38B0097
:10129400C01A524143088B4201D34B00C01A524139
:1012A400411A00D201465241104670475DE0CA0F10
:1012B40000D04942031000D34042534000229C46D0
:1012C40003098B422DD3030A8B4212D3FC228901DA
:1012D40012BA030A8B420CD3890192118B4208D3B0
:1012E400890192118B4204D389013AD0921100E012
:1012F4008909C3098B4201D3CB01C01A5241830926
:101304008B4201D38B01C01A524143098B4201D352
:101314004B01C01A524103098B4201D30B01C01A7D
:101324005241C3088B4201D3CB00C01A52418308F7
:101334008B4201D38B00C01A5241D9D243088B424D
:1013440001D34B00C01A5241411A00D201466346F0
:1013540052415B10104601D34042002B00D5494254
:10136400704763465B1000D3404201B5002000F093
:1013740005F802BD0029F8D016E770477047C0464B
:10138400F0B5C64643025B0A9C461F00DE004B02D2
:101394005A0A450090464A002D0E120EC40F00B59D
:1013A400C90F9B09A81A8C4221D000280DDD002A00
:1013B4002DD1002B00D195E0421E012800D131E14E
:1013C400FF2800D194E0100027E0002862D0501BD1
:1013D400002D00D0E1E0002E00D181E0441E012860
:1013E40000D142E1FF2800D119E12000DAE0002811
:1013F40000DC9CE0002A69D0FF2D00D178E0802237
:10140400D20413431B2800DC7DE001362AE0FF2DC3
:1014140000D16DE08022D204134301221B2807DC93
:101424002021091A1A008B40C240591E8B411A43CD
:10143400B61A730100D477E0B601B709380000F09A
:1014440075FF05388740854200DD82E020223B009D
:10145400401B0130121A3E009340C6405A1E93416D
:1014640000251E43730704D00F233340042B00D000
:101474000436730137D5681CFE2D52D08E4BC0B292
:1014840033409B015F0AC0053843E407204380BC16
:10149400B846F0BDFE206A1C104274D1002D00D065
:1014A400AAE0002E00D1DAE00020002BEBD080224D
:1014B400F71AD204174200D1ECE09B1B134200D16F
:1014C400F2E07D4A0C0013400130DAE7002B09D02A
:1014D400421E012800D196E0FF2809D0100091E7B0
:1014E4000C001E000500F3089C46FF2D00D091E07F
:1014F4006346002B15D080276346FF031F437F02FA
:10150400FF207F0ABFE72021091A1A008B40C2403E
:10151400591E8B411343F618730105D50135FF2D70
:1015240054D1FF200027AEE773079DD1DBE70028E5
:1015340013D0501B002D50D1002ED2D0411E0128B3
:1015440040D0FF286CD008001B286EDD15005E1CFF
:1015540088E7594E2D1A3E4084E7FE216A1C114249
:1015640041D1002D6CD1002E00D190E00020002B41
:1015740000D188E7F318DF087F027F0A5B0100D4FB
:1015840081E701207FE7F71A7A0132D4002F00D0D7
:1015940054E700240020002775E7FF2A3FD0802469
:1015A400E404264301241B2808DC35001F34241AD4
:1015B400A640C540741EA6412C0034431E1B1500D2
:1015C4000C0036E7F6180235730120D501233B4A97
:1015D4003340760816401E4344E7FF2A20D080217A
:1015E400C9040E43B0E7FF2A9BD0F618150076080D
:1015F40038E70C009F1B21E7002E3AD1002B4ED078
:10160400C4460C0077E7F61802257301DED4F3080C
:101614009C46012563465F027F0AE8B233E70C006B
:10162400C44665E70125F61A03E731002025C140C9
:10163400281A8640701E86410E431500F6186BE783
:10164400002EEDD0002B00D155E78023DB039C4511
:1016540000D250E7984500D34DE7C4464BE7002B32
:1016640097D00C00474600200DE70C009E1B013567
:10167400DFE6002B00D13EE78023DB039C4500D24C
:1016840039E7984500D336E70C00C44633E74746AC
:101694000020F8E6002F0BD0BF017F0AF3E6802775
:1016A4000024FF20FF03EEE69B010C005F0AEAE63C
:1016B40000240027E7E6C046FFFFFFFBFFFFFF7D96
:1016C400F0B546464F46D6464502C0B5C30F47005F
:1016D40098460E1C6D0A3F0E57D0FF2F21D0802351
:1016E400ED00DB041D43002399469A467F3F7402B4
:1016F4007300640A1B0EF60F002B20D0FF2B4CD076
:1017040080220020E400D20414437F3B4246FF1AA7
:101714004B4672400F2B00D9ACE06F499B00CB586D
:101724009F46002D5BD108239946063B74029A46D6
:101734007300FF27640A1B0EF60F002BDED1002C6A
:1017440030D1012342464946724019430E2904D838
:101754006248890041588F464246FF200024C00554
:101764002043D2071043E0BCBA46B146A846F0BDB8
:101774005346022BF0D0032B00D1A3E042462C00A9
:10178400012B35D100200024E9E7002D1BD10423CF
:101794009946033B00279A46A9E7002C0CD1022363
:1017A400FF3FCFE7200000F0C1FD431F9C4076239C
:1017B4005B421B1A0020A9E703234A461A439146B9
:1017C4000320FC33A2E7280000F0B0FD7627431F76
:1017D4009D4000237F4299469A463F1A87E70C238F
:1017E4009946093BFF279A4681E703286CD03200CB
:1017F40038007F30002825DD630704D00F23234001
:10180400042B00D00434230103D53800344B80303A
:101814001C40FE28A1DCA401640AC0B29FE7802416
:101824000022FF20E4039AE78023DB031D4201D05A
:101834001C424BD08024E4032C4364024246FF2024
:10184400640A8CE701231B1A1B2B9BDC21009E37A7
:10185400D940BC400B00611E8C412343590704D07E
:101864000F211940042900D00433590126D5012041
:10187400002474E76D016001854213D21B23002408
:10188400013F0126290064006D00002901DBA84204
:1018940001D82D1A3443013B002BF3D16B1E9D411B
:1018A4002C43A5E71A2301242D1AEAE7981E434284
:1018B4005841404232000024C0B250E79B0100204E
:1018C4005C0A4CE746462C008023DB031C4364027D
:1018D4003200FF20640A42E7442F0008842F0008E6
:1018E400FFFFFFF7F0B54F464646D6464502C0B562
:1018F40046000F1C6D0A360EC40F002E00D1C3E043
:10190400FF2E77D08023ED00DB041D43002399468E
:101914009A467F3E7B025B0A98467B001B0EFF0FB4
:10192400002B77D0FF2B00D194E042468021D200D7
:10193400C9041143884600217F3BF6184B46721CAC
:101944000A2B73DC4B467C40022B00DCA7E04846A4
:1019540001238340A620C000034267D19020800069
:10196400034200D0ECE0B938FF38184200D0DAE086
:1019740041460904090C43460F00280C2D041B0C96
:101984002D0C6F4341435D4358436D183B0C5B1969
:10199400994203D9802149028C4660443F041904CA
:1019A4003F0CC9198D016F1EBD411B0C890E1B18FC
:1019B4000D439B011D431B0100D4C6E001236908AC
:1019C4001D400D4310007F30002800DC94E06B07BD
:1019D40004D00F232B40042B00D004352B0103D556
:1019E400803210005E4B1D40FE2855DCAB015B0AC3
:1019F400C0B226E0002D00D078E008239946063BCB
:101A04009A467B025B0A98467B00FF261B0EFF0F5B
:101A1400002B87D14346002B56D14A4601331A4343
:101A240091464B460121721C0A2B8BDD5346022B37
:101A340032D0032B00D17CE05346012BC2D10020CD
:101A44000023C0051843E4072043E0BCBA46B1466E
:101A5400A846F0BD33004246FF33002A3FD003229C
:101A640049461143721C8946FF320A2973DD0F2946
:101A74005DD18023DB031D425BD042461A4258D11C
:101A84003C00FF201343DCE7002D11D104239946C9
:101A9400033B00269A463DE7FF200023D1E7013BA4
:101AA400012B00D964E70229F6D045468A46C3E7EC
:101AB400280000F03BFC7626431F9D40002376421D
:101AC40099469A46361A25E7404600F02FFC4246CE
:101AD400431F9A40361A90460021763E2EE7494627
:101AE4000232114389461E00022127E70C2399463E
:101AF400093BFF269A460DE701231B1A1B2B9EDC8C
:101B04009E3229009540D9406A1E95410D436B07CA
:101B140004D00F232B40042B00D004356B0116D5C1
:101B2400012000238DE73C0045468A467EE73C00C1
:101B340045468023DB032B435B02FF205B0A80E7DF
:101B440080230024FF20DB037BE732003AE7AB016C
:101B540000205B0A75E71E0003217C40F7E6C046BF
:101B6400FFFFFFF770B5002813D0C317C5185D40F9
:101B7400C40F280000F0DAFB9E2301001B1A962BE9
:101B84000FDC082831D008398D406D026D0AD8B2B7
:101B940002E0002400200025C0052843E407204378
:101BA40070BD992B15DC421F95402A001500114881
:101BB4000540560709D00F263240042A05D00435C3
:101BC4006A0102D59F2305405B1AAD016D0AD8B2A4
:101BD400E2E70522121A2800D0400A001B32954081
:101BE4002A00551EAA410243E0E76D0296206D0AC1
:101BF400D2E7C046FFFFFFFBF0B557464E46DE4630
:101C04004546E0B589B0009201930B031B0B9A463D
:101C1400CA0F4B00040091465B0D00D1BCE1D84AC9
:101C2400934200D14AE15146420FC9000A43802140
:101C340009041143C2009046D24A8A469C180023E4
:101C440000250393009E019F3B031B0B9B46FA0F49
:101C54007B0030005B0D049200D16FE1C84A9342CF
:101C640000D153E15946720FC9000A438021090487
:101C74001143C44A8B46944600216344F0001B1967
:101C84005C1C0A2D00DD26E14E46049A5640F2B251
:101C94000092022D00DCA8E10122AA40A62715002B
:101CA400FF003A403D4200D013E19027BF003D427F
:101CB40000D016E288222A4200D0EFE14146424693
:101CC4000904090C0D00170C020C0004000C454318
:101CD400AC46050016007D43A8460D007E430392E2
:101CE40004963200039E75436646360CB14645445D
:101CF4004D44A84505D91600802252029046464418
:101D040004962E0C059666463604360CB4462D040D
:101D1400654406955D462D0CA9465D460E002D04CE
:101D24002D0C6E43B4462E007E43B3464E4671439B
:101D3400594488466146090C414477438B4503D98D
:101D440080225202904647440E0CB0463E00464460
:101D5400079666463704059E3F0CB4460904C91924
:101D64008C44664605965646360CB44656463704A9
:101D74003F0C3E004643B04666464643B24646469E
:101D84006046360CB346039A50437A4352445A444D
:101D9400924503D980267602B2465044160CB246C8
:101DA40082444046120490460004000C3A004E4619
:101DB400804460466A4377434543704384467819B8
:101DC400170C3F18BD4203D9802040028146CC4401
:101DD400059D0498A946079E484488428941B14616
:101DE40012043D04120CAA184A44494255184044AE
:101DF400A9464045AD41C8466D42AB46B242924108
:101E040089458941D044C344494252420A43AB45BF
:101E1400AD41D04589416D4249420D4359463F0C7D
:101E2400D219521962445202C90D069D11438A46C1
:101E3400410229434D1EA941C00D08435946490298
:101E440008438046D20100D473E1012243080240D2
:101E540013435246D2071343984653465B089A46A7
:101E6400009B9946484BE318002B00DCE5E0424612
:101E740052070AD00F2241460A40042A05D00431F1
:101E8400414592418846524292445246D20106D577
:101E940052463E4B1A4080239246DB00E3183C4AEC
:101EA400934200DD9DE04246D108524652070A4360
:101EB40051465B054C02240B5B0D19E0524602436C
:101EC400904600D0B3E01C000223924608250393F9
:101ED400B8E6009B9946039B022B00D181E0032BBB
:101EE40000D1F5E0039B012BBCD100230024002288
:101EF40010004A461B052343D2071343190009B0B7
:101F0400F0BCBB46B246A946A046F0BD5B46009E67
:101F14001E431B4BE318002E00D181E003224E46E2
:101F24001543049A5640F2B200928022120194465C
:101F340064440A2D00DDB7E00321ADE65B46009A58
:101F4400134365D05B46002B00D1E2E0584600F015
:101F5400EDF9020003000B3A1D27009EBA1A19007E
:101F64005846D640083988403200024300989346C8
:101F74008840084AE31A94460021634480E6C04638
:101F8400FF07000001FCFFFFFF030000FFFFFFFE4F
:101F9400FE0700000DFCFFFF53460343984630D074
:101FA4005346002B00D1A2E0504600F0BFF90B23AA
:101FB4005B429C460200844466461D239B1B26000C
:101FC40011005046DE4008398840330003439A46E6
:101FD40023008B4098460023694C0025A41A0393E0
:101FE40030E600240022674B82E7013D012D00D931
:101FF40064E6009B99460229F3D0DA4680460391B1
:1020040070E700239A46013304250024039319E65C
:10201400002201331D4393462300002001212FE6B3
:1020240002221543002200209346022128E61C00C8
:10203400032380460C25039304E60121C91A382999
:1020440000DD52E71F2978DD1F225242D31A52467F
:10205400DA401300202907D04B4A414694465246A1
:102064006444A240114388464246511E8A411A43A1
:10207400072319000024114013420BD00F231340EF
:10208400042B7BD0131D9342A4411A0064426107C0
:102094006402240BD20800230A4329E7049BDA468E
:1020A40099468046039116E70F2D0DD1802453469F
:1020B400240323420CD05B46234209D11C43049BD6
:1020C400020099462F4B13E7049BDA469946804653
:1020D4008024534624031C4324034246294B240BE7
:1020E40006E70023802499462403264B00E700F0EA
:1020F4001DF915239C4684440200634620321C2BA0
:1021040000DC59E7002398462300083883409A46A8
:1021140061E700F00BF902000300153220331C2A9A
:1021240000DC19E702000099083A914000208B4630
:102134001FE7009A1C00914694E6144B52469C46B5
:1021440043466444A240CB401A434346A340581E2E
:10215400834154461A43CC40530709D00F231340FC
:10216400042B05D0131D934292415242A4181A0025
:1021740023028CD5012300240022B9E6002486E73B
:102184000DFCFFFFFF0700003E0400001E040000DA
:1021940070B542024300C40FFE201B0E591C550AA1
:1021A40008420CD0E02189008C466D07120B634471
:1021B4001B051343E40723432800190070BD002BBB
:1021C40014D1002D1BD0280000F0B0F80A281CDC24
:1021D4000B232A001B1ADA40030015339D400E4BD3
:1021E40012031B1A5B05120B5B0DE1E7002D09D0EE
:1021F400130B802212031A436D07084BD8E7002300
:102204000022D5E70022054BD2E703002A000B3B4E
:102214009A400025E3E7C04689030000FF07000059
:10222400F0B54B000F035B0D3C4C450F83B07F0AA8
:102234005E1C2F4300900191CA0FC50026420BD0AB
:1022440037495C18FE2C13DDFF200023C00518431A
:10225400D207104303B0F0BD3D43002B01D1002051
:10226400F4E7002DF0D08023DB03FF203B43EDE7B0
:10227400002C14DD009BFF009B01581E8341690F55
:102284003B430B43590746D00F21194004292AD058
:102294000433590127D501340023E0B2D6E72100E5
:1022A400173124DB80211E2009043943001B1F2819
:1022B40020DD02267642341B0E00E640340020283E
:1022C40004D018488446634499400D432B00591E9A
:1022D4008B41234359071AD00F21002419400429A4
:1022E40001D0002404339B015B0AE0B2AEE7002076
:1022F4000023ABE70C4C1C192B00A540C340A140A4
:10230400681E854129430B4300245907BCD19B0116
:1023140000205B0A9AE7DB08E0B297E7FE070000BB
:1023240080FCFFFFA2FCFFFF82FCFFFF1C210123B6
:102334001B04984201D3000C10391B0A984201D3A4
:10234400000A08391B09984201D30009043902A282
:10235400105C40187047C0460403020201010101E9
:102364000000000000000000F0B50500830749D01C
:10237400541E002A45D003000326CAB202E00135E8
:10238400013C3ED301332A703342F8D1032C30D9B7
:10239400FF220A401502AD182A04AD180F2C34D9B7
:1023A4002700103F3F093E01B4461E001A001036B4
:1023B4006644156055609560D56010329642F8D138
:1023C40001373F01DB190F270C22274022403C0034
:1023D400002A0ED03E1FB608B400A4461A001C1DE5
:1023E400644420C2A242FCD103240136B6009B19E6
:1023F4003C40002C05D0C9B21C19197001339C4211
:10240400FBD1F0BD03001400C0E72700E2E7C0469B
:10241400F0B505000F2A31D903273E000D430C0007
:1024240003002E402F4234D11500103D2D09AC4637
:102434002F013F1865685D60A5689D60E568DD60F3
:10244400256810341D601D001033BD42F2D165466D
:102454000F230C2401352D01491913404519144249
:102464001AD0043B9B0801339B008C59AC510436B1
:102474009E42FAD10323AD1989191A40561E002A27
:1024840006D00023CC5C1A00EC5401339642F9D1F7
:10249400F0BD0500561EF4E71A00EFE770B50D4BCA
:1024A4000D4D5E1BB610AB4205D0002408CD01349F
:1024B4009847A642FAD800F093FD084B084D5E1BDE
:1024C400B610AB4205D0002408CD01349847A6428B
:1024D400FAD870BD000000000000000000000000F9
:1024E4000000000010B50C4C2000FEF703FBFA219D
:1024F40060688900FEF7CEFDC021084A01385060AB
:1025040007480906036A1B021B0A0B4303620023E4
:1025140093600733136010BD1800002010E000E042
:1025240000ED00E082B00190019A034B1A601A6832
:10253400002AFCD102B070473800002010B592B0D8
:10254400202216496846FFF763FFFFF7CBFF00F030
:102554000DF900F0ADFB08A800F0FAFB08A800F0A4
:10256400F7FB00F07FFB0120FFF7DCFF00F02CFB02
:1025740000210B4800F0B8F8FA240022094BA4000B
:102584001A70002000F074F801222021684600F03F
:10259400D1FA2000FFF7C6FFF3E7C046C02F0008BA
:1025A400A086010034000020034B1A68002A02D0E0
:1025B4001A68013A1A6070473800002013B50120E8
:1025C4000F24244B24491A6802431A605A680A40AB
:1025D4005A601A6821490A401A601A6820490A4058
:1025E4001A605A681F490A405A60DA6AA243DA62DA
:1025F4001A6B1D4C22401A635A6B82435A630022A1
:102604009A6000920192194A103010605A685A6018
:102614005A685A605A680A405A60A022596892035C
:102624000A435A608022196852040A431A608022BD
:10263400920419681142FCD003215A688A435A60F3
:10264400022259680A430C215A605A680A40082A2F
:10265400FBD113BD001002400CB8FFF8FFFFF6FEDB
:10266400FFFFFBFFFFFFC0FFACFEFFFF00200240A7
:10267400034B8000C2582023918A4B4093827047B9
:1026840004000020802110B5034B8000C05889014C
:10269400FDF74CFE10BDC046000000207047FEE769
:1026A4007047704710B5FFF77FFF10BD802010B54D
:1026B4008001FDF767FD01280ED10020FFF7E2FF3E
:1026C400002809D0074A1378012B06D10023802063
:1026D40080011370FDF764FD10BD13780133DBB284
:1026E400F5E7C0463400002080B584B000AF7860C0
:1026F40039600023FB6024E0C046C046C046C046A3
:10270400C046C046C046C046C046C046C046C04695
:10271400C046C046C046C046C046C046C046C04685
:10272400C046C046C046C046C046C046C046C04675
:10273400C046C046C046C046C046C046FB680133DA
:10274400FB60FB687A689A42D6D8C046C046BD464C
:1027540004B080BD10B500210520FFF7C5FF90230C
:102764008022DB0592049A6110BD0000802030B500
:1027740001218BB08003FEF775FA8020164C0121ED
:10278400C002FEF757FA200001220821FDF7F2FDEE
:10279400012220000921FDF7EDFDC0239B000193D8
:1027A4000E4B200001A90293FDF752FD00230C4DAE
:1027B40003AC0693049305930A4B2100280003936A
:1027C400FDF706FE01212800FDF740FE6822064BB6
:1027D4001C609A800BB030BD000400480203010164
:1027E40000540040231D90004000002030B5802498
:1027F400174B24029D692542FCD12024DC6144004E
:10280400882080022043586012209C690442FCD036
:1028140010209C69044201D0D86130BD9962022124
:1028240098690842FCD09A62502299691142FCD0FE
:1028340010229969114201D0DA61EEE780225968C9
:10284400D2010A435A60202299691142FCD0F3E76D
:102854000054004073B5150001911A000400FF21D3
:1028640028001E00FFF780FD8022244B1202996984
:102874001142FCD12022DA619022640052022243E8
:102884005A60122299691142FCD0102299691142AE
:1028940001D0DA610AE0019A9A62502299691142E0
:1028A400FCD010219A690A4202D0D961280076BD71
:1028B40032041443124AA81922435A602A00019090
:1028C4000198904204D1202299691142FCD0E0E79A
:1028D40014209C690442FBD09C690C4209D001225B
:1028E400D961002E00D03200FF212800FFF73CFD03
:1028F400DCE75C6A14700132E2E7C0460054004031
:1029040000240002802310B5084C228911001940CC
:102914001A42FAD190241023E405012804D005209A
:10292400FFF7E2FE80235B03A36110BD003001408A
:1029340070B50C4B0C001D7805430020FFF7E2FF37
:102944000121094A094B157018890842FCD099895C
:102954001470012219891142FCD001209B89FFF7D0
:10296400D1FF70BD0E0000200C300140003001404A
:10297400F8B5130014006A460833DB08DB00D31AE9
:1029840000AF9D466D460E4B22001B7818432870FD
:10299400681CFFF73DFD0020FFF7B4FF0023012072
:1029A4000849094AEE5C0E7016890642FCD00133D0
:1029B40096899C42F6DA0120FFF7A4FFBD46F8BDD4
:1029C4000E0000200C30014000300140F8B5030037
:1029D400684614000832D208D200821A00AF954625
:1029E400134A6D46002900D1124A127819002A7040
:1029F400E243D2172240681CFFF70AFD0020FFF7CC
:102A040081FF012600230C4AA34204DD0120FFF7C5
:102A140079FFBD46F8BD022011890142FBD0E95C73
:102A24000648017011893142FCD091890133EBE7EA
:102A34000D0000200C000020003001400C3001404B
:102A440010B5084B00201C78FFF75CFF0122064BF1
:102A54001C70064B19891142FCD001209B89FFF799
:102A640051FF10BD0A0000200C300140003001402D
:102A740073B50D0004000322234901A8FFF7C8FC25
:102A8400FFF7DEFF214B30211878FFF751FF204B71
:102A940001211878FFF74CFF1E4B01211878FFF72E
:102AA40047FF1D4E1D4B3278187801A9FFF760FFD0
:102AB4001B4B3278187801A9FFF75AFF194B0721ED
:102AC4001878FFF735FF184B20211878FFF730FFEF
:102AD400164B01211878FFF72BFF154B2A00200015
:102AE4001978FFF773FF90238022DB0592009A6127
:102AF40000218220FFF7F8FD00210F20FFF7F4FDED
:102B0400FFF728FE73BDC046312F00080B000020DC
:102B140015000020140000200800002010000020F0
:102B24001200002013000020110000200F000020DC
:102B34000900002070B50C008CB003901100200037
:102B44001500FEF72DFBC9B2002913D1290020205E
:102B5400FEF710FC0E1E0DD1002D0BD0194B0A21CF
:102B64001878FFF7E5FEFA203100C000FFF7BCFD3E
:102B7400002C01D10CB070BD2B0063430193029370
:102B8400202B01DD20230293039B029A991904A8A8
:102B9400FFF73EFC6B4604A8197AFFF769FF019B17
:102BA400202B0CDD202029004042FEF7FDFA2418DA
:102BB400E4B229002020FEF7F7FA3618D8E70024FB
:102BC400F7E7C0463C00002010B50120FFF79AFE4D
:102BD400FFF7C0FD6420FFF7A5FC10BD30B58025CC
:102BE4006D0189B028000121FEF730F8902480207F
:102BF400E40501218002FEF71DF8200000220521D2
:102C0400FDF7B8FB200000220621FDF7B3FB0022EC
:102C140020000721FDF7AEFBE02301930F4B2000BA
:102C240001A90293FDF714FB82235B040393E023C1
:102C3400DB00049380239B0405932023084C069314
:102C4400A38820001D4303A9A580FEF7ABF801214A
:102C54002000FEF72DF909B030BDC0460203000084
:102C64000030014030B5902487B0FFF7B7FF102340
:102C7400E4050D4D6946200000930195FDF7E8FA3F
:102C84008023DB000293094B200002A90393FDF784
:102C9400DFFA802320009B0004A904930595FDF727
:102CA400D7FA07B030BDC04601030002000300019B
:102CB40010B500227F216920FFF798FD30220521FD
:102CC4006920FFF793FD112206216920FFF78EFD8D
:102CD400002207216920FFF789FD20227F21692036
:102CE400FFF784FD012253216920FFF77FFD0722AE
:102CF40000216920FFF77AFD3F2201216920FFF7B7
:102D040075FD022269201100FFF770FD0A221021CF
:102D14006920FFF76BFD3F2214216920FFF766FD50
:102D2400002215216920FFF761FD00227F2169201F
:102D3400FFF75CFD02220F216920FFF757FD0822EF
:102D440031210C20FFF752FD0A20FFF7EBFB10BDE9
:102D5400002270B590B00CAD08AB2D219A7104001F
:102D64002A000E236920FFF775FD2888FF2640BA44
:102D740080B2FEF7F7FEE8218905FEF7B3FDFFF701
:102D840007FA4D4A4D4BFEF737FFFFF749FA00901B
:102D9400688840BA80B2FEF7E5FEE8218905FEF7AF
:102DA400A1FDFFF7F5F9444A444BFEF725FFFFF771
:102DB40037FA0190A88840BA80B2FEF7D3FEE82122
:102DC4008905FEF78FFDFFF7E3F93B4A3B4BFEF71E
:102DD40013FFFFF725FA0290A879EB797043C01826
:102DE400FEF7C0FE3649FEF76BFC0390287A6B7A37
:102DF4007043C018FEF7B6FE3149FEF761FC04903B
:102E0400AB7AE87A5E433018FEF7ACFE2C49FEF745
:102E140057FC0590A889012540BA80B2FEF7A2FEAE
:102E24002849FEF74DFC2849FEF7AAFA069008AB9C
:102E34009E1D32002B0010210C20FFF70BFD337870
:102E44002B42F4D00AAD2A00062311210C20FFF7EF
:102E540001FD08AA0123073218210C20FFF7FAFC10
:102E64000023E85EFEF77EFE1849FEF73BFD07905F
:102E74000223E85EFEF776FE1449FEF733FD061CD6
:102E84000423E85EFEF76EFE1049FEF72BFD009B5F
:102E940026622360019B60626360029BA360039BC4
:102EA400E360049B2361059B6361069BA361079B0D
:102EB400E36110B070BDC0461F85EB51B89E23403E
:102EC400333383415CEFA8430000A8419A99193E2B
:102ED4000D488546002103E00C4B5B5843500431F8
:102EE4000B480C4B42189A42F6D30B4A02E00023DB
:102EF40013600432094B9A42F9D3FFF75FFBFFF7E3
:102F0400CDFAFFF71BFBFEE700200020FC2F000892
:102F140000000020180000201800002048000020B5
:102F2400FEE7204300205061002025000093BD6B84
:102F3400000000000102030401020304060708095B
:102F4400781800085E17000888170008EE170008B4
:102F5400881700082218000888170008EE170008D0
:102F64005E1700085E17000822180008EE17000814
:102F74007417000874170008741700082C18000848
:102F84005E1700085E17000888170008B0180008CC
:102F9400881700082218000888170008B0180008CD
:102FA4005E1700085E17000822180008B018000811
:102FB400741700087417000874170008010203044A
:102FC40005060708090102030405060708090102AA
:102FD40003040506070809010203040500000000B4
:102FE400F8B5C046F8BC08BC9E467047F8B5C04664
:082FF400F8BC08BC9E467047C2
:102FFC0000080048000000480301E107B0A0201DB4
:08300C0010110A060301000087
:0400000508002ED5EC
:00000001FF
