:020000040800F2
:1000000000200020F9150008711100087311000884
:1000100000000000000000000000000000000000E0
:100020000000000000000000000000007511000842
:10003000000000000000000077110008791100089E
:100040004916000849160008491600084916000814
:1000500049160008491600084916000881110008D1
:1000600049160008491600084916000849160008F4
:1000700049160008491600084916000849160008E4
:10008000491600084916000800000000491600083B
:1000900049160008491600084916000849160008C4
:1000A00049160008491600084916000849160008B4
:1000B0004916000800000000491600080000000072
:0400C0005FF808F1EC
:1000C400044B054A1A6000225A609A60DA60034AB7
:1000D4005A617047000401400000940FFFFF6B0059
:1000E400174B30B59C46027904688379E143624436
:1000F400002B1AD063461D680D401D605D682940C1
:1001040059601168214311609968026891439960AC
:10011400D9689143D960417910290AD0084B9C468B
:1001240061440B681A430A6002E0136819401160C5
:1001340030BD996811439960D9680A43DA60F7E7DA
:1001440000040140C02200231201036082808371F5
:100154007047C046024A1369034313617047C0469F
:1001640000040140034B5B691840431E9841C0B230
:100174007047C04600040140014B58617047C046B7
:10018400000401400300054A00201168526913422B
:1001940003D00B405A1E9341D8B27047000401406B
:1001A400014B58617047C04600040140902310B5CC
:1001B400DB05984217D0224B98421FD0214B98421E
:1001C40027D0214B984203D0204B98422CD010BD0D
:1001D40080200121400300F00BFB8020002140031C
:1001E40000F006FBF3E780200121800200F000FB11
:1001F40080200021800200F0FBFAE8E78020012142
:10020400C00200F0F5FA80200021C00200F0F0FAEC
:10021400DDE780200121000300F0EAFA80200021BC
:10022400000300F0E5FAD2E780200121C00300F0CA
:10023400DFFA80200021C00300F0DAFAC7E7C046E5
:100244000004004800080048000C0048001400485E
:10025400F0B5DE46454657464E460124E0B50B68E8
:10026400A34602349C4600220023A04683B003E048
:1002740001330232102B38D05C4665469C40254041
:10028400AC42F5D146469640F7430D7901976E1E70
:10029400012E14D886683E4086608668B2464E7940
:1002A4009640B14656464F463E4386608688A643EE
:1002B40086808E7984889E403443A4B2848095409D
:1002C4000468019E013326400660046825430560E6
:1002D40045469540C468AC43C460CC79C568944035
:1002E4002C43C4600232102BC6D103B0F0BCBB4611
:1002F400B246A946A046F0BD024B036080239B0092
:1003040043607047FFFF0000802382B05B020193CB
:10031400019B0B430193019BC361C161019BC361B9
:10032400C3690193C369019302B07047038A1940FA
:100334000800431E9841C0B27047C046008A80B28C
:100344007047C046838A19400800431E9841C0B2D2
:100354007047C046808A80B27047C046816170474A
:1003640001857047002A01D0816170470185FCE74F
:1003740081827047072310B50F240B409B009C40DB
:100384009A40C90889004018016AA1430162016AC0
:100394000A43026210BDC0460121114B11481A687C
:1003A4000A431A605A6802405A601A680E480240AA
:1003B4001A601A680D4802401A605A680C480240D4
:1003C4000F205A60DA6A8243DA621A6B09480240E3
:1003D4001A635A6B8A435A6300229A607047C04674
:1003E400001002400CB8FFF8FFFFF6FEFFFFFBFF12
:1003F400FFFFC0FFACFEFFFF0022024B1A70187013
:100404007047C0460210024000238022A02082B020
:100414000B4901939202C0000B68134209D0019B5F
:1004240001330193019B064B18688003C00F02B08F
:100434007047019B01330193019B8342ECD1F2E7A6
:1004440000100240F821034AC00013688B4318438C
:100454001060704700100240054A0121136800280B
:1004640002D00B43136070478B431360FBE7C04615
:1004740000100240F821034AC000536B8B43184319
:100484005063704700100240054A0121536B002855
:1004940002D00B43536370478B435363FBE7C0465F
:1004A40000100240054A0421536B002802D08B43FC
:1004B400536370470B435363FBE7C046001002408D
:1004C4000121064B1A6A8A431A621A6A03318A4363
:1004D4001A621A6A02431A627047C0460010024048
:1004E4001821044B1A6A8A431A621A6A02431A626E
:1004F4007047C04600100240054A0121536A002893
:1005040002D00B43536270478B435362FBE7C046F0
:1005140000100240054A10B55368054C234053604F
:1005240053680B430343536010BDC04600100240A0
:10053400FFFFC2FF064A002805D0802311685B0430
:100544000B4313607047136802490B401360F9E7CB
:1005540000100240FFFFFFFE0F21034AD36A8B43C2
:100564000343D3627047C04600100240064A002885
:1005740005D0802311681B030B4313607047136875
:1005840002490B401360F9E700100240FFFFF7FF38
:10059400014B18707047C046071002400321034AFC
:1005A40053688B43034353607047C04600100240B6
:1005B4000C20024B5B6818407047C0460010024094
:1005C400F021034A53688B43034353607047C0468A
:1005D40000100240034A044953680B40034353602C
:1005E4007047C04600100240FFF8FFFF094B0A495C
:1005F4005A680A405A6059680204120C0A435A6045
:100604001A6B0649000C0A401A631A6B10431863EC
:100614007047C04600100240FFBFFFFFFFFEFFFF10
:100624004021044B1A6B8A431A631A6B02431A6300
:100634007047C046001002401021044B1A6B8A43D5
:100644001A631A6B02431A637047C04600100240D3
:100654000321044B1A6B8A431A631A6B02431A630D
:100664007047C046001002400C23344A70B55168EC
:1006740004000B40082B42D0314802002F4920606F
:100684004B68304D1B061B0FEB5CDA4062604B6815
:100694005B055B0FEB5CDA40A2600B6BDB051BD5E3
:1006A40049689308490428D511252449E3600B6B54
:1006B4005B06DB17AB43244DAC46634423610B6BF1
:1006C4000100DB0600D41E49032361611B490D6B45
:1006D4002B4203D1A26170BD1C4BE5E70A6B1A40A3
:1006E400012A1CD00A6B1A40022A22D00A6B13403A
:1006F400032BF0D1124BA361EDE75308D4E70F218C
:1007040050685368800C0840851CDB0309D46A01D7
:10071400521B93019B1ADB005B191802ADE7A06121
:10072400D9E7D36A06481940013100F06DFA6843ED
:10073400A3E780231B02A361CDE7C046001002405B
:1007440000127A005816000812800000809FD5001D
:10075400024A136A034313627047C0460010024002
:10076400064A002805D08023116A1B020B4313623A
:100774007047136A02490B401362F9E70010024004
:10078400FF7FFFFF064A002805D08023116A5B0221
:100794000B4313627047136A02490B401362F9E773
:1007A40000100240FFFFFEFF044A5369002902D0F3
:1007B40003435361704783435361FBE700100240D6
:1007C400044A9369002902D0034393617047834329
:1007D4009361FBE700100240044AD369002902D068
:1007E4000343D36170478343D361FBE700100240A6
:1007F400044A936A002902D00343936270478343F7
:100804009362FBE700100240044AD368002902D037
:100814000343D36070478343D360FBE70010024077
:10082400044A1369002902D00343136170478343C8
:100834001361FBE700100240044A1378002902D038
:1008440003431370704783431370FBE7091002409E
:10085400430907D10A4B1A681F230340DA400120D9
:1008640010407047012B04D0022B05D0044B5A6B67
:10087400F2E7034B1A6AEFE7014B5A6AECE7C0460A
:10088400001002408023034A5B04516A0B43536205
:100894007047C04600100240034B9B6803405A1E39
:1008A4009341D8B27047C04600100240014B187003
:1008B4007047C0460A1002400E4B10B5984203D050
:1008C4000D4B98420BD010BD802001214001FFF751
:1008D4009BFF802000214001FFF796FFF3E7802073
:1008E4000121C001FFF79CFF80200021C001FFF718
:1008F40097FFE8E700300140003800400023E02281
:1009040003804380D200C380038143818381C381F8
:100914000733828003827047C1220388920110B595
:100924001A40CC890B882343CC8823430C89234366
:100934004C8923438C892343134303808388094AC6
:1009440013408A881343042283800B8A038203881A
:1009540093434A8813430380838B034A134083835E
:1009640010BDC046FFF0FFFFFFF7FFFF0023022288
:1009740003604360826083817047C046F0B5C64619
:1009840000B5274A838B0600134083830223038424
:10099400858B8B680C0088B0ADB2022B39D0898866
:1009A40001A84B1E99414B1C9846FFF75DFE80231E
:1009B400E78801989B009F4229D04346590100F0E3
:1009C40023F983001818A168400000F01DF90530D0
:1009D4000A2180B200F018F901230340C01A40082C
:1009E40080B2811E0222FD2916D917433784238839
:1009F400628813431D43A3881D43A3891D43802399
:100A04001B012B43B38308B080BCB846F0BD000A79
:100A1400D7E70222CF88E8E71A020243E5E7C04697
:100A240040F0FFFF40220388002902D013430380D3
:100A3400704793430380FBE710228388002902D088
:100A440013438380704793438380FBE7002905D0D9
:100A54008023828BDB00134383837047838B024A9A
:100A640013408383F9E7C046FFFBFFFF8388024AF4
:100A740013400B4383807047FFF0FFFF8388034AD2
:100A84001340838083880B4383807047FFEFFFFF0D
:100A94008023DB01994204D00388044A1340038075
:100AA4007047038819430180FAE7C046FFBFFFFF80
:100AB400064B994205D0802302885B0013430380D0
:100AC40070470388024A13400380F9E7FFFE0000E1
:100AD400FFFEFFFF04228388002902D01343838092
:100AE400704793438380FBE708228388002902D060
:100AF40013438380704793438380FBE701737047FC
:100B040081817047007BC0B27047C046808980B243
:100B14007047C0460388034A1340038003880B438D
:100B240003807047FFF7FFFF002905D08023028868
:100B34009B011343038070470388024A13400380D8
:100B4400F9E7C046FFDFFFFF802302885B01134300
:100B540003807047012902D0008B80B27047808ADD
:100B640080B2FBE7008A80B27047C0468388002ABF
:100B740002D00B43838070478B438380FBE7C046DE
:100B84008388034A1340838083880B4383807047A0
:100B9400FF9FFFFF012309098B409BB2002A03D06A
:100BA400828813438380704782889A438280FAE75D
:100BB400C02300895B0118407047C046C0230089E8
:100BC400DB0018407047C046038919400800431EE3
:100BD4009841C0B27047C046C94389B20181704789
:100BE400012330B50F228488058918000A409040FB
:100BF4000200A4B200202A4205D009098B402340F8
:100C04005A1E9341D8B230BD002243088B4274D39C
:100C140003098B425FD3030A8B4244D3030B8B42F9
:100C240028D3030C8B420DD3FF22090212BA030C02
:100C34008B4202D31212090265D0030B8B4219D3E3
:100C440000E0090AC30B8B4201D3CB03C01A524103
:100C5400830B8B4201D38B03C01A5241430B8B424B
:100C640001D34B03C01A5241030B8B4201D30B0334
:100C7400C01A5241C30A8B4201D3CB02C01A52415B
:100C8400830A8B4201D38B02C01A5241430A8B421E
:100C940001D34B02C01A5241030A8B4201D30B0207
:100CA400C01A5241CDD2C3098B4201D3CB01C01A21
:100CB400524183098B4201D38B01C01A524143092B
:100CC4008B4201D34B01C01A524103098B4201D319
:100CD4000B01C01A5241C3088B4201D3CB00C01A86
:100CE400524183088B4201D38B00C01A52414308FE
:100CF4008B4201D34B00C01A5241411A00D2014623
:100D0400524110467047FFE701B5002000F0F0F8AB
:100D140002BDC0460029F7D076E7704703460B436F
:100D24007FD4002243088B4274D303098B425FD3E0
:100D3400030A8B4244D3030B8B4228D3030C8B420C
:100D44000DD3FF22090212BA030C8B4202D31212F2
:100D5400090265D0030B8B4219D300E0090AC30BC7
:100D64008B4201D3CB03C01A5241830B8B4201D374
:100D74008B03C01A5241430B8B4201D34B03C01A5D
:100D84005241030B8B4201D30B03C01A5241C30AD5
:100D94008B4201D3CB02C01A5241830A8B4201D346
:100DA4008B02C01A5241430A8B4201D34B02C01A30
:100DB4005241030A8B4201D30B02C01A5241CDD2D5
:100DC400C3098B4201D3CB01C01A524183098B4220
:100DD40001D38B01C01A524143098B4201D34B0109
:100DE400C01A524103098B4201D30B01C01A52416C
:100DF400C3088B4201D3CB00C01A524183088B42F3
:100E040001D38B00C01A524143088B4201D34B00DB
:100E1400C01A5241411A00D201465241104670474D
:100E24005DE0CA0F00D04942031000D34042534052
:100E340000229C4603098B422DD3030A8B4212D312
:100E4400FC22890112BA030A8B420CD38901921144
:100E54008B4208D3890192118B4204D389013AD081
:100E6400921100E08909C3098B4201D3CB01C01A56
:100E7400524183098B4201D38B01C01A5241430969
:100E84008B4201D34B01C01A524103098B4201D357
:100E94000B01C01A5241C3088B4201D3CB00C01AC4
:100EA400524183088B4201D38B00C01A5241D9D2DC
:100EB40043088B4201D34B00C01A5241411A00D25D
:100EC4000146634652415B10104601D34042002B59
:100ED40000D54942704763465B1000D3404201B5D8
:100EE400002000F005F802BD0029F8D016E770478D
:100EF4007047C046F0B505000F2A31D903273E00DC
:100F04000D430C0003002E402F4234D11500103D38
:100F14002D09AC462F013F1865685D60A5689D608A
:100F2400E568DD60256810341D601D001033BD4286
:100F3400F2D165460F230C2401352D0149191340C4
:100F4400451914421AD0043B9B0801339B008C5969
:100F5400AC5104369E42FAD10323AD1989191A40C3
:100F6400561E002A06D00023CC5C1A00EC54013330
:100F74009642F9D1F0BD0500561EF4E71A00EFE7DA
:100F840070B50D4B0D4D5E1BB610AB4205D0002461
:100F940008CD01349847A642FAD800F075FB084BF7
:100FA400084D5E1BB610AB4205D0002408CD0134B9
:100FB4009847A642FAD870BD000000000000000067
:100FC400000000000000000010B50C4C2000FFF7EA
:100FD4004BFBFA2160688900FFF716FEC021084A1E
:100FE4000138506007480906036A1B021B0A0B43B9
:100FF4000362002393600733136010BD18000020C0
:1010040010E000E000ED00E082B00190019A034B93
:101014001A601A68002AFCD102B070473800002018
:1010240010B588B0202211496846FFF763FFFFF727
:10103400CBFF00F0B9FA0120FFF7E6FF00F066FAF3
:1010440000210B4800F0B8F801222021684600F086
:1010540011FAFA240022074BA4001A70002000F0B1
:101064006FF82000FFF7D0FFF8E7C04668160008C5
:10107400A086010034000020034B1A68002A02D025
:101084001A68013A1A6070473800002013B501202D
:101094000F24244B24491A6802431A605A680A40F0
:1010A4005A601A6821490A401A601A6820490A409D
:1010B4001A605A681F490A405A60DA6AA243DA621F
:1010C4001A6B1D4C22401A635A6B82435A630022E6
:1010D4009A6000920192194A103010605A685A605E
:1010E4005A685A605A680A405A60A02259689203A2
:1010F4000A435A608022196852040A431A60802203
:10110400920419681142FCD003215A688A435A6038
:10111400022259680A430C215A605A680A40082A74
:10112400FBD113BD001002400CB8FFF8FFFFF6FE20
:10113400FFFFFBFFFFFFC0FFACFEFFFF00200240EC
:10114400034B8000C2582023918A4B4093827047FE
:1011540004000020802110B5034B8000C058890191
:10116400FFF7E4F810BDC046000000207047FEE71A
:101174007047704710B5FFF77FFF10BD802010B592
:101184008001FEF7FFFF01280ED10020FFF7E2FFE8
:10119400002809D0074A1378012B06D100238020A8
:1011A40080011370FEF7FCFF10BD13780133DBB22E
:1011B400F5E7C0463400002080B584B000AF786005
:1011C40039600023FB6024E0C046C046C046C046E8
:1011D400C046C046C046C046C046C046C046C046DB
:1011E400C046C046C046C046C046C046C046C046CB
:1011F400C046C046C046C046C046C046C046C046BB
:10120400C046C046C046C046C046C046FB6801331F
:10121400FB60FB687A689A42D6D8C046C046BD4691
:1012240004B080BD10B500210520FFF7C5FF902351
:101234008022DB0552049A6110BD0000802310B5A2
:10124400094C2289110019401A42FAD19024E4056C
:10125400012803D18023DB00A36110BD0520FFF723
:10126400ABFF8023DB04F7E70030014070B50C4B83
:101274000C001D7805430020FFF7E0FF0121094A17
:10128400094B157018890842FCD099891470012201
:1012940019891142FCD001209B89FFF7CFFF70BD53
:1012A4000E0000200C30014000300140F8B513005E
:1012B40014006A460833DB08DB00D31A00AF9D46EE
:1012C4006D460E4B22001B7818432870681CFFF7EC
:1012D40011FE0020FFF7B2FF002301200849094A4C
:1012E400EE5C0E7016890642FCD0013396899C424E
:1012F400F6DA0120FFF7A2FFBD46F8BD0E0000207C
:101304000C30014000300140F8B503006846140079
:101314000832D208D200821A00AF9546134A6D46AD
:10132400002900D1124A127819002A70E243D21718
:101334002240681CFFF7DEFD0020FFF77FFF012637
:1013440000230C4AA34204DD0120FFF777FFBD46CA
:10135400F8BD022011890142FBD0E95C0648017006
:1013640011893142FCD091890133EBE70D00002053
:101374000C000020003001400C30014010B5084B37
:1013840000201C78FFF75AFF0122064B1C70064B05
:1013940019891142FCD001209B89FFF74FFF10BD32
:1013A4000A0000200C3001400030014073B50D00EC
:1013B40004000322244901A8FFF79CFDFFF7DEFF88
:1013C400224B30211878FFF751FF214B0121187867
:1013D400FFF74CFF1F4B01211878FFF747FF1E4E04
:1013E4001E4B3278187801A9FFF760FF1C4B327846
:1013F400187801A9FFF75AFF1A4B00211878FFF754
:1014040035FF194B01211878FFF730FF174B0121E5
:101414001878FFF72BFF164B2A0020001978FFF7E6
:1014240073FF90238022DB05520000219A61822001
:10143400FFF7C2FE0120FFF7E7FD3220FFF7E4FDCE
:10144400FFF7F0FE73BDC046551600080B000020E0
:1014540015000020140000200800002010000020C7
:101464001200002013000020110000200F000020B3
:101474000900002070B50C008AB001901100200012
:101484001500FFF747FCC9B2002918D12900202014
:10149400FFF72AFD0E1E12D1002D10D01A4B0A217F
:1014A4001878FFF7E3FEFA203100C000FFF784FE4E
:1014B400002C06D1144B08211878FFF7D7FE0AB088
:1014C40070BD2B0063431A000093202B00DD202203
:1014D400019B02A89919FFF70DFD202102A8FFF72F
:1014E40065FF009B202B0CDD202029004042FFF7E4
:1014F40015FC2418E4B229002020FFF70FFC36184D
:10150400D6E70024F7E7C0463C00002010B50120D0
:10151400FFF794FEFFF786FE6420FFF775FD10BD0C
:1015240030B580256D0189B028000121FFF748F905
:1015340090248020E40501218002FFF735F9200082
:1015440000220521FEF716FF200000220621FEF7E7
:1015540011FF002220000721FEF70CFFE023019376
:101564000F4B200001A90293FEF772FE82235B0455
:101574000393E023DB00049380239B04059320233F
:10158400084C0693A38820001D4303A9A580FFF7F8
:10159400C3F901212000FFF745FA09B030BDC04668
:1015A400020300000030014030B5902487B0FFF7FB
:1015B400B7FF8023E4050D4D69462000DB0000934E
:1015C4000195FEF745FE80239B000293084B200003
:1015D40002A90393FEF73CFE802320005B0004A9CC
:1015E40004930595FEF734FE07B030BD01030002F5
:1015F400000300010D488546002103E00C4B5B58B5
:10160400435004310B480C4B42189A42F6D30B4A10
:1016140002E0002313600432094B9A42F9D3FFF726
:1016240035FDFFF7ADFCFFF7FBFCFEE700200020D3
:10163400A416000800000020180000201800002054
:1016440040000020FEE720430020506100202500D8
:101654000093BD6B000000000102030401020304B7
:101664000607080901020304050607080901020325
:101674000405060708090102030405060708090111
:101684000203040500000000F8B5C046F8BC08BC1D
:101694009E467047F8B5C046F8BC08BC9E467047E5
:1016A40000080048000000480301E107B0A0201D25
:0816B40010110A0603010000F9
:04000005080015F9E1
:00000001FF
